{
  "address": "0xe7f1725E7734CE288F8367e1Bb143E90bb3F0512",
  "abi": [
    {
      "inputs": [
        {
          "internalType": "address",
          "name": "_priceFeed",
          "type": "address"
        }
      ],
      "stateMutability": "nonpayable",
      "type": "constructor"
    },
    {
      "inputs": [
        {
          "internalType": "uint256",
          "name": "prod1",
          "type": "uint256"
        },
        {
          "internalType": "uint256",
          "name": "denominator",
          "type": "uint256"
        }
      ],
      "name": "PRBMath__MulDivOverflow",
      "type": "error"
    },
    {
      "inputs": [
        {
          "internalType": "uint256",
          "name": "amount",
          "type": "uint256"
        }
      ],
      "name": "WrongWorthOfEth",
      "type": "error"
    },
    {
      "anonymous": false,
      "inputs": [
        {
          "indexed": false,
          "internalType": "address",
          "name": "owner",
          "type": "address"
        },
        {
          "indexed": true,
          "internalType": "string",
          "name": "product",
          "type": "string"
        },
        {
          "indexed": true,
          "internalType": "uint256",
          "name": "howOld",
          "type": "uint256"
        },
        {
          "indexed": true,
          "internalType": "uint256",
          "name": "idv",
          "type": "uint256"
        }
      ],
      "name": "InsuranedYourProduct",
      "type": "event"
    },
    {
      "inputs": [
        {
          "internalType": "uint256",
          "name": "_counter",
          "type": "uint256"
        }
      ],
      "name": "ReInsurance",
      "outputs": [],
      "stateMutability": "payable",
      "type": "function"
    },
    {
      "inputs": [],
      "name": "addOns_engineCover",
      "outputs": [
        {
          "internalType": "uint256",
          "name": "",
          "type": "uint256"
        }
      ],
      "stateMutability": "view",
      "type": "function"
    },
    {
      "inputs": [],
      "name": "addOns_keyLoss",
      "outputs": [
        {
          "internalType": "uint256",
          "name": "",
          "type": "uint256"
        }
      ],
      "stateMutability": "view",
      "type": "function"
    },
    {
      "inputs": [],
      "name": "addOns_zeroDeprication",
      "outputs": [
        {
          "internalType": "uint256",
          "name": "",
          "type": "uint256"
        }
      ],
      "stateMutability": "view",
      "type": "function"
    },
    {
      "inputs": [
        {
          "internalType": "uint256",
          "name": "five",
          "type": "uint256"
        },
        {
          "internalType": "uint256",
          "name": "ex_show_price",
          "type": "uint256"
        }
      ],
      "name": "getCalculc",
      "outputs": [
        {
          "internalType": "uint256",
          "name": "",
          "type": "uint256"
        }
      ],
      "stateMutability": "pure",
      "type": "function"
    },
    {
      "inputs": [
        {
          "internalType": "uint256",
          "name": "amount",
          "type": "uint256"
        }
      ],
      "name": "getConversion",
      "outputs": [
        {
          "internalType": "uint256",
          "name": "",
          "type": "uint256"
        }
      ],
      "stateMutability": "view",
      "type": "function"
    },
    {
      "inputs": [
        {
          "internalType": "string",
          "name": "_product",
          "type": "string"
        },
        {
          "internalType": "uint256",
          "name": "_ex_ShowRoomPrice",
          "type": "uint256"
        },
        {
          "internalType": "uint256",
          "name": "_howOldInMonths",
          "type": "uint256"
        },
        {
          "internalType": "bool",
          "name": "_zeroDeprication",
          "type": "bool"
        },
        {
          "internalType": "bool",
          "name": "_engineCover",
          "type": "bool"
        },
        {
          "internalType": "bool",
          "name": "_lostkey",
          "type": "bool"
        }
      ],
      "name": "getInsurance",
      "outputs": [],
      "stateMutability": "payable",
      "type": "function"
    },
    {
      "inputs": [],
      "name": "getPrice",
      "outputs": [
        {
          "internalType": "uint256",
          "name": "",
          "type": "uint256"
        }
      ],
      "stateMutability": "view",
      "type": "function"
    },
    {
      "inputs": [
        {
          "internalType": "uint256",
          "name": "usdtoWei",
          "type": "uint256"
        }
      ],
      "name": "getUSDtoWEI",
      "outputs": [
        {
          "internalType": "uint256",
          "name": "",
          "type": "uint256"
        }
      ],
      "stateMutability": "view",
      "type": "function"
    },
    {
      "inputs": [
        {
          "internalType": "uint256",
          "name": "",
          "type": "uint256"
        }
      ],
      "name": "insurances",
      "outputs": [
        {
          "internalType": "string",
          "name": "products",
          "type": "string"
        },
        {
          "internalType": "uint256",
          "name": "ex_ShowRoomPrice",
          "type": "uint256"
        },
        {
          "internalType": "uint256",
          "name": "idv",
          "type": "uint256"
        },
        {
          "internalType": "uint256",
          "name": "howOld",
          "type": "uint256"
        },
        {
          "internalType": "uint256",
          "name": "whatInsuranceisThis",
          "type": "uint256"
        },
        {
          "internalType": "address payable",
          "name": "owner",
          "type": "address"
        },
        {
          "internalType": "bool",
          "name": "isclaimed",
          "type": "bool"
        },
        {
          "internalType": "bool",
          "name": "zeroDeprication",
          "type": "bool"
        },
        {
          "internalType": "bool",
          "name": "engineCover",
          "type": "bool"
        },
        {
          "internalType": "bool",
          "name": "keyLoss",
          "type": "bool"
        },
        {
          "internalType": "uint256",
          "name": "insuranceID",
          "type": "uint256"
        },
        {
          "internalType": "uint256",
          "name": "totalAmountPaid",
          "type": "uint256"
        }
      ],
      "stateMutability": "view",
      "type": "function"
    },
    {
      "inputs": [],
      "name": "priceFeed",
      "outputs": [
        {
          "internalType": "contract AggregatorV3Interface",
          "name": "",
          "type": "address"
        }
      ],
      "stateMutability": "view",
      "type": "function"
    },
    {
      "inputs": [],
      "name": "s_MIN_USD",
      "outputs": [
        {
          "internalType": "uint256",
          "name": "",
          "type": "uint256"
        }
      ],
      "stateMutability": "view",
      "type": "function"
    }
  ],
  "transactionHash": "0xb6d7516554b61f84ef96d28732b661d2166257cbc35e5a0b3c74762d17dd00c2",
  "args": [
    "0x5FbDB2315678afecb367f032d93F642f64180aa3"
  ],
  "numDeployments": 1,
  "solcInputHash": "bc20714949c77f177da58d4b5a4b6f42",
  "bytecode": "0x60806040526146506001553480156200001757600080fd5b50604051620019ca380380620019ca83398181016040528101906200003d91906200009d565b80806000806101000a81548173ffffffffffffffffffffffffffffffffffffffff021916908373ffffffffffffffffffffffffffffffffffffffff160217905550505062000122565b600081519050620000978162000108565b92915050565b600060208284031215620000b657620000b562000103565b5b6000620000c68482850162000086565b91505092915050565b6000620000dc82620000e3565b9050919050565b600073ffffffffffffffffffffffffffffffffffffffff82169050919050565b600080fd5b6200011381620000cf565b81146200011f57600080fd5b50565b61189880620001326000396000f3fe6080604052600436106100a75760003560e01c8063741bef1a11610064578063741bef1a146101ce57806385e93261146101f95780638bfa676914610236578063943fbd251461025257806398d5fdca1461027d578063deee63d3146102a8576100a7565b8063047abed7146100ac5780632ae0cac5146100e95780634d6e3f1f14610114578063598e65d51461013f57806359fb49f91461016a5780635f03ac27146101b2575b600080fd5b3480156100b857600080fd5b506100d360048036038101906100ce9190610f31565b6102e5565b6040516100e09190611262565b60405180910390f35b3480156100f557600080fd5b506100fe61031f565b60405161010b9190611262565b60405180910390f35b34801561012057600080fd5b5061012961032c565b6040516101369190611262565b60405180910390f35b34801561014b57600080fd5b50610154610339565b6040516101619190611262565b60405180910390f35b34801561017657600080fd5b50610191600480360381019061018c9190610f31565b610346565b6040516101a99c9b9a99989796959493929190611161565b60405180910390f35b6101cc60048036038101906101c79190610f31565b610492565b005b3480156101da57600080fd5b506101e3610698565b6040516101f09190611146565b60405180910390f35b34801561020557600080fd5b50610220600480360381019061021b9190610f31565b6106bc565b60405161022d9190611262565b60405180910390f35b610250600480360381019061024b9190610e88565b610710565b005b34801561025e57600080fd5b50610267610a10565b6040516102749190611262565b60405180910390f35b34801561028957600080fd5b50610292610a1d565b60405161029f9190611262565b60405180910390f35b3480156102b457600080fd5b506102cf60048036038101906102ca9190610f5e565b610adb565b6040516102dc9190611262565b60405180910390f35b6000806102f0610a1d565b90506000670de0b6b3a7640000848361030991906114c1565b6103139190611379565b90508092505050919050565b6801158e460913d0000081565b68056bc75e2d6310000081565b6801a055690d9db8000081565b6003818154811061035657600080fd5b906000526020600020906008020160009150905080600001805461037990611641565b80601f01602080910402602001604051908101604052809291908181526020018280546103a590611641565b80156103f25780601f106103c7576101008083540402835291602001916103f2565b820191906000526020600020905b8154815290600101906020018083116103d557829003601f168201915b5050505050908060010154908060020154908060030154908060040154908060050160009054906101000a900473ffffffffffffffffffffffffffffffffffffffff16908060050160149054906101000a900460ff16908060050160159054906101000a900460ff16908060050160169054906101000a900460ff16908060050160179054906101000a900460ff1690806006015490806007015490508c565b6000600382815481106104a8576104a7611731565b5b906000526020600020906008020190508060050160009054906101000a900473ffffffffffffffffffffffffffffffffffffffff1673ffffffffffffffffffffffffffffffffffffffff163373ffffffffffffffffffffffffffffffffffffffff161461054a576040517f08c379a000000000000000000000000000000000000000000000000000000000815260040161054190611242565b60405180910390fd5b60008160050160149054906101000a900460ff166105e257600382600401541115801561057b575060008260040154115b156105965761058f600a8360070154610adb565b90506105dd565b60038260040154111580156105af575060058260040154115b156105ca576105c360148360070154610adb565b90506105dc565b6105d960288360070154610adb565b90505b5b6105ea565b816007015490505b8034101561062d576040517f08c379a000000000000000000000000000000000000000000000000000000000815260040161062490611222565b60405180910390fd5b6000600c83600301546106409190611323565b9050610650818460010154610b13565b8360020181905550808360030181905550600183600401546106729190611323565b836004018190555034836007015461068a9190611323565b836007018190555050505050565b60008054906101000a900473ffffffffffffffffffffffffffffffffffffffff1681565b6000806106c960016102e5565b905060006106e0670de0b6b3a76400008084610bf6565b90506000670de0b6b3a7640000826106f89190611379565b9050848161070691906114c1565b9350505050919050565b600068056bc75e2d631000009050831561073c576801a055690d9db80000816107399190611323565b90505b821561075a576801158e460913d00000816107579190611323565b90505b8115610778576801158e460913d00000816107759190611323565b90505b60006107848688610b13565b905081610790346102e5565b116107d257346040517f5da6aa6f0000000000000000000000000000000000000000000000000000000081526004016107c99190611262565b60405180910390fd5b60006040518061018001604052808a8152602001898152602001838152602001888152602001600181526020013373ffffffffffffffffffffffffffffffffffffffff168152602001600015158152602001871515815260200186151581526020018515158152602001600254815260200134815250905060038190806001815401808255809150506001900390600052602060002090600802016000909190919091506000820151816000019080519060200190610892929190610d0c565b506020820151816001015560408201518160020155606082015181600301556080820151816004015560a08201518160050160006101000a81548173ffffffffffffffffffffffffffffffffffffffff021916908373ffffffffffffffffffffffffffffffffffffffff16021790555060c08201518160050160146101000a81548160ff02191690831515021790555060e08201518160050160156101000a81548160ff0219169083151502179055506101008201518160050160166101000a81548160ff0219169083151502179055506101208201518160050160176101000a81548160ff0219169083151502179055506101408201518160060155610160820151816007015550506001600260008282546109af9190611323565b9250508190555081878a6040516109c69190611114565b60405180910390207f107cc50ba7367b376b2cbc5feec57f9feef39e48fffc2c7385fccaa1b7fd5071336040516109fd919061112b565b60405180910390a4505050505050505050565b6801158e460913d0000081565b60008060008054906101000a900473ffffffffffffffffffffffffffffffffffffffff1673ffffffffffffffffffffffffffffffffffffffff1663feaf968c6040518163ffffffff1660e01b815260040160a06040518083038186803b158015610a8657600080fd5b505afa158015610a9a573d6000803e3d6000fd5b505050506040513d601f19601f82011682018060405250810190610abe9190610f9e565b5050509150506402540be40081610ad591906113aa565b91505090565b6000808284610aea91906114c1565b90506000606482610afb9190611379565b90508084610b09919061151b565b9250505092915050565b600060068311158015610b27575060008310155b15610b3e57610b37600583610adb565b9050610bf0565b600c8311158015610b50575060068310155b15610b6757610b60600f83610adb565b9050610bf0565b60188311158015610b795750600c8310155b15610b9057610b89601483610adb565b9050610bf0565b60248311158015610ba2575060188310155b15610bb957610bb2601e83610adb565b9050610bf0565b60308311158015610bcb575060248310155b15610be257610bdb602883610adb565b9050610bf0565b610bed603283610adb565b90505b92915050565b600080600080198587098587029250828110838203039150506000811415610c3257838281610c2857610c276116d3565b5b0492505050610d05565b838110610c785780846040517f773cc18c000000000000000000000000000000000000000000000000000000008152600401610c6f92919061127d565b60405180910390fd5b60008486880990508281118203915080830392506000600186190186169050808604955080840493506001818260000304019050808302841793506000600287600302189050808702600203810290508087026002038102905080870260020381029050808702600203810290508087026002038102905080870260020381029050808502955050505050505b9392505050565b828054610d1890611641565b90600052602060002090601f016020900481019282610d3a5760008555610d81565b82601f10610d5357805160ff1916838001178555610d81565b82800160010185558215610d81579182015b82811115610d80578251825591602001919060010190610d65565b5b509050610d8e9190610d92565b5090565b5b80821115610dab576000816000905550600101610d93565b5090565b6000610dc2610dbd846112cb565b6112a6565b905082815260208101848484011115610dde57610ddd611794565b5b610de98482856115ff565b509392505050565b600081359050610e0081611806565b92915050565b600081519050610e158161181d565b92915050565b600082601f830112610e3057610e2f61178f565b5b8135610e40848260208601610daf565b91505092915050565b600081359050610e5881611834565b92915050565b600081519050610e6d81611834565b92915050565b600081519050610e828161184b565b92915050565b60008060008060008060c08789031215610ea557610ea461179e565b5b600087013567ffffffffffffffff811115610ec357610ec2611799565b5b610ecf89828a01610e1b565b9650506020610ee089828a01610e49565b9550506040610ef189828a01610e49565b9450506060610f0289828a01610df1565b9350506080610f1389828a01610df1565b92505060a0610f2489828a01610df1565b9150509295509295509295565b600060208284031215610f4757610f4661179e565b5b6000610f5584828501610e49565b91505092915050565b60008060408385031215610f7557610f7461179e565b5b6000610f8385828601610e49565b9250506020610f9485828601610e49565b9150509250929050565b600080600080600060a08688031215610fba57610fb961179e565b5b6000610fc888828901610e73565b9550506020610fd988828901610e06565b9450506040610fea88828901610e5e565b9350506060610ffb88828901610e5e565b925050608061100c88828901610e73565b9150509295509295909350565b61102281611561565b82525050565b6110318161154f565b82525050565b61104081611573565b82525050565b61104f816115c9565b82525050565b6000611060826112fc565b61106a8185611307565b935061107a81856020860161160e565b611083816117a3565b840191505092915050565b6000611099826112fc565b6110a38185611318565b93506110b381856020860161160e565b80840191505092915050565b60006110cc600183611307565b91506110d7826117b4565b602082019050919050565b60006110ef601183611307565b91506110fa826117dd565b602082019050919050565b61110e816115a9565b82525050565b6000611120828461108e565b915081905092915050565b60006020820190506111406000830184611028565b92915050565b600060208201905061115b6000830184611046565b92915050565b600061018082019050818103600083015261117c818f611055565b905061118b602083018e611105565b611198604083018d611105565b6111a5606083018c611105565b6111b2608083018b611105565b6111bf60a083018a611019565b6111cc60c0830189611037565b6111d960e0830188611037565b6111e7610100830187611037565b6111f5610120830186611037565b611203610140830185611105565b611211610160830184611105565b9d9c50505050505050505050505050565b6000602082019050818103600083015261123b816110bf565b9050919050565b6000602082019050818103600083015261125b816110e2565b9050919050565b60006020820190506112776000830184611105565b92915050565b60006040820190506112926000830185611105565b61129f6020830184611105565b9392505050565b60006112b06112c1565b90506112bc8282611673565b919050565b6000604051905090565b600067ffffffffffffffff8211156112e6576112e5611760565b5b6112ef826117a3565b9050602081019050919050565b600081519050919050565b600082825260208201905092915050565b600081905092915050565b600061132e826115a9565b9150611339836115a9565b9250827fffffffffffffffffffffffffffffffffffffffffffffffffffffffffffffffff0382111561136e5761136d6116a4565b5b828201905092915050565b6000611384826115a9565b915061138f836115a9565b92508261139f5761139e6116d3565b5b828204905092915050565b60006113b58261157f565b91506113c08361157f565b9250827f7fffffffffffffffffffffffffffffffffffffffffffffffffffffffffffffff04821160008413600084131616156113ff576113fe6116a4565b5b817f8000000000000000000000000000000000000000000000000000000000000000058312600084126000841316161561143c5761143b6116a4565b5b827f80000000000000000000000000000000000000000000000000000000000000000582126000841360008412161615611479576114786116a4565b5b827f7fffffffffffffffffffffffffffffffffffffffffffffffffffffffffffffff05821260008412600084121616156114b6576114b56116a4565b5b828202905092915050565b60006114cc826115a9565b91506114d7836115a9565b9250817fffffffffffffffffffffffffffffffffffffffffffffffffffffffffffffffff04831182151516156115105761150f6116a4565b5b828202905092915050565b6000611526826115a9565b9150611531836115a9565b925082821015611544576115436116a4565b5b828203905092915050565b600061155a82611589565b9050919050565b600061156c82611589565b9050919050565b60008115159050919050565b6000819050919050565b600073ffffffffffffffffffffffffffffffffffffffff82169050919050565b6000819050919050565b600069ffffffffffffffffffff82169050919050565b60006115d4826115db565b9050919050565b60006115e6826115ed565b9050919050565b60006115f882611589565b9050919050565b82818337600083830152505050565b60005b8381101561162c578082015181840152602081019050611611565b8381111561163b576000848401525b50505050565b6000600282049050600182168061165957607f821691505b6020821081141561166d5761166c611702565b5b50919050565b61167c826117a3565b810181811067ffffffffffffffff8211171561169b5761169a611760565b5b80604052505050565b7f4e487b7100000000000000000000000000000000000000000000000000000000600052601160045260246000fd5b7f4e487b7100000000000000000000000000000000000000000000000000000000600052601260045260246000fd5b7f4e487b7100000000000000000000000000000000000000000000000000000000600052602260045260246000fd5b7f4e487b7100000000000000000000000000000000000000000000000000000000600052603260045260246000fd5b7f4e487b7100000000000000000000000000000000000000000000000000000000600052604160045260246000fd5b600080fd5b600080fd5b600080fd5b600080fd5b6000601f19601f8301169050919050565b7f6f00000000000000000000000000000000000000000000000000000000000000600082015250565b7f596f7520617265206e6f74204f776e6572000000000000000000000000000000600082015250565b61180f81611573565b811461181a57600080fd5b50565b6118268161157f565b811461183157600080fd5b50565b61183d816115a9565b811461184857600080fd5b50565b611854816115b3565b811461185f57600080fd5b5056fea264697066735822122068a52bdc0b313461e7570f6b12ab4be251a3d1f9e49c3befdef5fd1baa570b5264736f6c63430008070033",
  "devdoc": {
    "kind": "dev",
    "methods": {},
    "version": 1
  },
  "userdoc": {
    "errors": {
      "PRBMath__MulDivOverflow(uint256,uint256)": [
        {
          "notice": "Emitted when the result overflows uint256."
        }
      ]
    },
    "kind": "user",
    "methods": {},
    "version": 1
  },
  "storageLayout": {
    "storage": [
      {
        "astId": 111,
        "contract": "contracts/EverInsurance.sol:EverInsurance",
        "label": "priceFeed",
        "offset": 0,
        "slot": "0",
        "type": "t_contract(AggregatorV3Interface)45"
      },
      {
        "astId": 118,
        "contract": "contracts/EverInsurance.sol:EverInsurance",
        "label": "MinUsd",
        "offset": 0,
        "slot": "1",
        "type": "t_uint256"
      },
      {
        "astId": 216,
        "contract": "contracts/EverInsurance.sol:EverInsurance",
        "label": "counter",
        "offset": 0,
        "slot": "2",
        "type": "t_uint256"
      },
      {
        "astId": 245,
        "contract": "contracts/EverInsurance.sol:EverInsurance",
        "label": "insurances",
        "offset": 0,
        "slot": "3",
        "type": "t_array(t_struct(insurance)241_storage)dyn_storage"
      }
    ],
    "types": {
      "t_address_payable": {
        "encoding": "inplace",
        "label": "address payable",
        "numberOfBytes": "20"
      },
      "t_array(t_struct(insurance)241_storage)dyn_storage": {
        "base": "t_struct(insurance)241_storage",
        "encoding": "dynamic_array",
        "label": "struct EverInsurance.insurance[]",
        "numberOfBytes": "32"
      },
      "t_bool": {
        "encoding": "inplace",
        "label": "bool",
        "numberOfBytes": "1"
      },
      "t_contract(AggregatorV3Interface)45": {
        "encoding": "inplace",
        "label": "contract AggregatorV3Interface",
        "numberOfBytes": "20"
      },
      "t_string_storage": {
        "encoding": "bytes",
        "label": "string",
        "numberOfBytes": "32"
      },
      "t_struct(insurance)241_storage": {
        "encoding": "inplace",
        "label": "struct EverInsurance.insurance",
        "members": [
          {
            "astId": 218,
            "contract": "contracts/EverInsurance.sol:EverInsurance",
            "label": "products",
            "offset": 0,
            "slot": "0",
            "type": "t_string_storage"
          },
          {
            "astId": 220,
            "contract": "contracts/EverInsurance.sol:EverInsurance",
            "label": "ex_ShowRoomPrice",
            "offset": 0,
            "slot": "1",
            "type": "t_uint256"
          },
          {
            "astId": 222,
            "contract": "contracts/EverInsurance.sol:EverInsurance",
            "label": "idv",
            "offset": 0,
            "slot": "2",
            "type": "t_uint256"
          },
          {
            "astId": 224,
            "contract": "contracts/EverInsurance.sol:EverInsurance",
            "label": "howOld",
            "offset": 0,
            "slot": "3",
            "type": "t_uint256"
          },
          {
            "astId": 226,
            "contract": "contracts/EverInsurance.sol:EverInsurance",
            "label": "whatInsuranceisThis",
            "offset": 0,
            "slot": "4",
            "type": "t_uint256"
          },
          {
            "astId": 228,
            "contract": "contracts/EverInsurance.sol:EverInsurance",
            "label": "owner",
            "offset": 0,
            "slot": "5",
            "type": "t_address_payable"
          },
          {
            "astId": 230,
            "contract": "contracts/EverInsurance.sol:EverInsurance",
            "label": "isclaimed",
            "offset": 20,
            "slot": "5",
            "type": "t_bool"
          },
          {
            "astId": 232,
            "contract": "contracts/EverInsurance.sol:EverInsurance",
            "label": "zeroDeprication",
            "offset": 21,
            "slot": "5",
            "type": "t_bool"
          },
          {
            "astId": 234,
            "contract": "contracts/EverInsurance.sol:EverInsurance",
            "label": "engineCover",
            "offset": 22,
            "slot": "5",
            "type": "t_bool"
          },
          {
            "astId": 236,
            "contract": "contracts/EverInsurance.sol:EverInsurance",
            "label": "keyLoss",
            "offset": 23,
            "slot": "5",
            "type": "t_bool"
          },
          {
            "astId": 238,
            "contract": "contracts/EverInsurance.sol:EverInsurance",
            "label": "insuranceID",
            "offset": 0,
            "slot": "6",
            "type": "t_uint256"
          },
          {
            "astId": 240,
            "contract": "contracts/EverInsurance.sol:EverInsurance",
            "label": "totalAmountPaid",
            "offset": 0,
            "slot": "7",
            "type": "t_uint256"
          }
        ],
        "numberOfBytes": "256"
      },
      "t_uint256": {
        "encoding": "inplace",
        "label": "uint256",
        "numberOfBytes": "32"
      }
    }
  }
}